{
	"fundme.sol": {
		"FundMe": {
			"abi": [
				{
					"inputs": [],
					"name": "fund",
					"outputs": [],
					"stateMutability": "payable",
					"type": "function"
				},
				{
					"inputs": [],
					"name": "minimumUsd",
					"outputs": [
						{
							"internalType": "uint256",
							"name": "",
							"type": "uint256"
						}
					],
					"stateMutability": "view",
					"type": "function"
				},
				{
					"inputs": [],
					"name": "withdraw",
					"outputs": [],
					"stateMutability": "view",
					"type": "function"
				}
			],
			"devdoc": {
				"kind": "dev",
				"methods": {},
				"version": 1
			},
			"evm": {
				"assembly": "    /* \"fundme.sol\":140:460  contract FundMe {... */\n  mstore(0x40, 0x80)\n    /* \"fundme.sol\":192:193  5 */\n  0x05\n    /* \"fundme.sol\":163:193  uint256 public  minimumUsd = 5 */\n  0x00\n  sstore\n    /* \"fundme.sol\":140:460  contract FundMe {... */\n  callvalue\n  dup1\n  iszero\n  tag_1\n  jumpi\n  0x00\n  dup1\n  revert\ntag_1:\n  pop\n  dataSize(sub_0)\n  dup1\n  dataOffset(sub_0)\n  0x00\n  codecopy\n  0x00\n  return\nstop\n\nsub_0: assembly {\n        /* \"fundme.sol\":140:460  contract FundMe {... */\n      mstore(0x40, 0x80)\n      jumpi(tag_1, lt(calldatasize, 0x04))\n      shr(0xe0, calldataload(0x00))\n      dup1\n      0x098de820\n      eq\n      tag_2\n      jumpi\n      dup1\n      0x3ccfd60b\n      eq\n      tag_3\n      jumpi\n      dup1\n      0xb60d4288\n      eq\n      tag_4\n      jumpi\n    tag_1:\n      0x00\n      dup1\n      revert\n        /* \"fundme.sol\":163:193  uint256 public  minimumUsd = 5 */\n    tag_2:\n      callvalue\n      dup1\n      iszero\n      tag_5\n      jumpi\n      0x00\n      dup1\n      revert\n    tag_5:\n      pop\n      tag_6\n      tag_7\n      jump\t// in\n    tag_6:\n      mload(0x40)\n      tag_8\n      swap2\n      swap1\n      tag_9\n      jump\t// in\n    tag_8:\n      mload(0x40)\n      dup1\n      swap2\n      sub\n      swap1\n      return\n        /* \"fundme.sol\":418:457  function withdraw() public view{... */\n    tag_3:\n      callvalue\n      dup1\n      iszero\n      tag_10\n      jumpi\n      0x00\n      dup1\n      revert\n    tag_10:\n      pop\n      tag_11\n      tag_12\n      jump\t// in\n    tag_11:\n      stop\n        /* \"fundme.sol\":200:412  function fund() public payable {... */\n    tag_4:\n      tag_13\n      tag_14\n      jump\t// in\n    tag_13:\n      stop\n        /* \"fundme.sol\":163:193  uint256 public  minimumUsd = 5 */\n    tag_7:\n      sload(0x00)\n      dup2\n      jump\t// out\n        /* \"fundme.sol\":418:457  function withdraw() public view{... */\n    tag_12:\n      jump\t// out\n        /* \"fundme.sol\":200:412  function fund() public payable {... */\n    tag_14:\n        /* \"fundme.sol\":375:379  1e18 */\n      0x0de0b6b3a7640000\n        /* \"fundme.sol\":363:372  msg.value */\n      callvalue\n        /* \"fundme.sol\":363:379  msg.value < 1e18 */\n      lt\n        /* \"fundme.sol\":355:405  require(msg.value < 1e18, \"didnt send enough ETH\") */\n      tag_17\n      jumpi\n      mload(0x40)\n      0x08c379a000000000000000000000000000000000000000000000000000000000\n      dup2\n      mstore\n      0x04\n      add\n      tag_18\n      swap1\n      tag_19\n      jump\t// in\n    tag_18:\n      mload(0x40)\n      dup1\n      swap2\n      sub\n      swap1\n      revert\n    tag_17:\n        /* \"fundme.sol\":200:412  function fund() public payable {... */\n      jump\t// out\n        /* \"#utility.yul\":7:84   */\n    tag_20:\n        /* \"#utility.yul\":44:51   */\n      0x00\n        /* \"#utility.yul\":73:78   */\n      dup2\n        /* \"#utility.yul\":62:78   */\n      swap1\n      pop\n        /* \"#utility.yul\":7:84   */\n      swap2\n      swap1\n      pop\n      jump\t// out\n        /* \"#utility.yul\":90:208   */\n    tag_21:\n        /* \"#utility.yul\":177:201   */\n      tag_28\n        /* \"#utility.yul\":195:200   */\n      dup2\n        /* \"#utility.yul\":177:201   */\n      tag_20\n      jump\t// in\n    tag_28:\n        /* \"#utility.yul\":172:175   */\n      dup3\n        /* \"#utility.yul\":165:202   */\n      mstore\n        /* \"#utility.yul\":90:208   */\n      pop\n      pop\n      jump\t// out\n        /* \"#utility.yul\":214:436   */\n    tag_9:\n        /* \"#utility.yul\":307:311   */\n      0x00\n        /* \"#utility.yul\":345:347   */\n      0x20\n        /* \"#utility.yul\":334:343   */\n      dup3\n        /* \"#utility.yul\":330:348   */\n      add\n        /* \"#utility.yul\":322:348   */\n      swap1\n      pop\n        /* \"#utility.yul\":358:429   */\n      tag_30\n        /* \"#utility.yul\":426:427   */\n      0x00\n        /* \"#utility.yul\":415:424   */\n      dup4\n        /* \"#utility.yul\":411:428   */\n      add\n        /* \"#utility.yul\":402:408   */\n      dup5\n        /* \"#utility.yul\":358:429   */\n      tag_21\n      jump\t// in\n    tag_30:\n        /* \"#utility.yul\":214:436   */\n      swap3\n      swap2\n      pop\n      pop\n      jump\t// out\n        /* \"#utility.yul\":442:611   */\n    tag_22:\n        /* \"#utility.yul\":526:537   */\n      0x00\n        /* \"#utility.yul\":560:566   */\n      dup3\n        /* \"#utility.yul\":555:558   */\n      dup3\n        /* \"#utility.yul\":548:567   */\n      mstore\n        /* \"#utility.yul\":600:604   */\n      0x20\n        /* \"#utility.yul\":595:598   */\n      dup3\n        /* \"#utility.yul\":591:605   */\n      add\n        /* \"#utility.yul\":576:605   */\n      swap1\n      pop\n        /* \"#utility.yul\":442:611   */\n      swap3\n      swap2\n      pop\n      pop\n      jump\t// out\n        /* \"#utility.yul\":617:788   */\n    tag_23:\n        /* \"#utility.yul\":757:780   */\n      0x6469646e742073656e6420656e6f756768204554480000000000000000000000\n        /* \"#utility.yul\":753:754   */\n      0x00\n        /* \"#utility.yul\":745:751   */\n      dup3\n        /* \"#utility.yul\":741:755   */\n      add\n        /* \"#utility.yul\":734:781   */\n      mstore\n        /* \"#utility.yul\":617:788   */\n      pop\n      jump\t// out\n        /* \"#utility.yul\":794:1160   */\n    tag_24:\n        /* \"#utility.yul\":936:939   */\n      0x00\n        /* \"#utility.yul\":957:1024   */\n      tag_34\n        /* \"#utility.yul\":1021:1023   */\n      0x15\n        /* \"#utility.yul\":1016:1019   */\n      dup4\n        /* \"#utility.yul\":957:1024   */\n      tag_22\n      jump\t// in\n    tag_34:\n        /* \"#utility.yul\":950:1024   */\n      swap2\n      pop\n        /* \"#utility.yul\":1033:1126   */\n      tag_35\n        /* \"#utility.yul\":1122:1125   */\n      dup3\n        /* \"#utility.yul\":1033:1126   */\n      tag_23\n      jump\t// in\n    tag_35:\n        /* \"#utility.yul\":1151:1153   */\n      0x20\n        /* \"#utility.yul\":1146:1149   */\n      dup3\n        /* \"#utility.yul\":1142:1154   */\n      add\n        /* \"#utility.yul\":1135:1154   */\n      swap1\n      pop\n        /* \"#utility.yul\":794:1160   */\n      swap2\n      swap1\n      pop\n      jump\t// out\n        /* \"#utility.yul\":1166:1585   */\n    tag_19:\n        /* \"#utility.yul\":1332:1336   */\n      0x00\n        /* \"#utility.yul\":1370:1372   */\n      0x20\n        /* \"#utility.yul\":1359:1368   */\n      dup3\n        /* \"#utility.yul\":1355:1373   */\n      add\n        /* \"#utility.yul\":1347:1373   */\n      swap1\n      pop\n        /* \"#utility.yul\":1419:1428   */\n      dup2\n        /* \"#utility.yul\":1413:1417   */\n      dup2\n        /* \"#utility.yul\":1409:1429   */\n      sub\n        /* \"#utility.yul\":1405:1406   */\n      0x00\n        /* \"#utility.yul\":1394:1403   */\n      dup4\n        /* \"#utility.yul\":1390:1407   */\n      add\n        /* \"#utility.yul\":1383:1430   */\n      mstore\n        /* \"#utility.yul\":1447:1578   */\n      tag_37\n        /* \"#utility.yul\":1573:1577   */\n      dup2\n        /* \"#utility.yul\":1447:1578   */\n      tag_24\n      jump\t// in\n    tag_37:\n        /* \"#utility.yul\":1439:1578   */\n      swap1\n      pop\n        /* \"#utility.yul\":1166:1585   */\n      swap2\n      swap1\n      pop\n      jump\t// out\n\n    auxdata: 0xa26469706673582212207198a6f20601b80301ce892a44bce86c92f3315c503b63ca2bcc0c4ee9ec5c4764736f6c634300081a0033\n}\n",
				"bytecode": {
					"linkReferences": {},
					"object": "608060405260055f553480156012575f80fd5b506101b3806100205f395ff3fe608060405260043610610033575f3560e01c8063098de820146100375780633ccfd60b14610061578063b60d428814610077575b5f80fd5b348015610042575f80fd5b5061004b610081565b60405161005891906100ec565b60405180910390f35b34801561006c575f80fd5b50610075610086565b005b61007f610088565b005b5f5481565b565b670de0b6b3a764000034106100d2576040517f08c379a00000000000000000000000000000000000000000000000000000000081526004016100c99061015f565b60405180910390fd5b565b5f819050919050565b6100e6816100d4565b82525050565b5f6020820190506100ff5f8301846100dd565b92915050565b5f82825260208201905092915050565b7f6469646e742073656e6420656e6f7567682045544800000000000000000000005f82015250565b5f610149601583610105565b915061015482610115565b602082019050919050565b5f6020820190508181035f8301526101768161013d565b905091905056fea26469706673582212207198a6f20601b80301ce892a44bce86c92f3315c503b63ca2bcc0c4ee9ec5c4764736f6c634300081a0033",
					"opcodes": "PUSH1 0x80 PUSH1 0x40 MSTORE PUSH1 0x5 PUSH0 SSTORE CALLVALUE DUP1 ISZERO PUSH1 0x12 JUMPI PUSH0 DUP1 REVERT JUMPDEST POP PUSH2 0x1B3 DUP1 PUSH2 0x20 PUSH0 CODECOPY PUSH0 RETURN INVALID PUSH1 0x80 PUSH1 0x40 MSTORE PUSH1 0x4 CALLDATASIZE LT PUSH2 0x33 JUMPI PUSH0 CALLDATALOAD PUSH1 0xE0 SHR DUP1 PUSH4 0x98DE820 EQ PUSH2 0x37 JUMPI DUP1 PUSH4 0x3CCFD60B EQ PUSH2 0x61 JUMPI DUP1 PUSH4 0xB60D4288 EQ PUSH2 0x77 JUMPI JUMPDEST PUSH0 DUP1 REVERT JUMPDEST CALLVALUE DUP1 ISZERO PUSH2 0x42 JUMPI PUSH0 DUP1 REVERT JUMPDEST POP PUSH2 0x4B PUSH2 0x81 JUMP JUMPDEST PUSH1 0x40 MLOAD PUSH2 0x58 SWAP2 SWAP1 PUSH2 0xEC JUMP JUMPDEST PUSH1 0x40 MLOAD DUP1 SWAP2 SUB SWAP1 RETURN JUMPDEST CALLVALUE DUP1 ISZERO PUSH2 0x6C JUMPI PUSH0 DUP1 REVERT JUMPDEST POP PUSH2 0x75 PUSH2 0x86 JUMP JUMPDEST STOP JUMPDEST PUSH2 0x7F PUSH2 0x88 JUMP JUMPDEST STOP JUMPDEST PUSH0 SLOAD DUP2 JUMP JUMPDEST JUMP JUMPDEST PUSH8 0xDE0B6B3A7640000 CALLVALUE LT PUSH2 0xD2 JUMPI PUSH1 0x40 MLOAD PUSH32 0x8C379A000000000000000000000000000000000000000000000000000000000 DUP2 MSTORE PUSH1 0x4 ADD PUSH2 0xC9 SWAP1 PUSH2 0x15F JUMP JUMPDEST PUSH1 0x40 MLOAD DUP1 SWAP2 SUB SWAP1 REVERT JUMPDEST JUMP JUMPDEST PUSH0 DUP2 SWAP1 POP SWAP2 SWAP1 POP JUMP JUMPDEST PUSH2 0xE6 DUP2 PUSH2 0xD4 JUMP JUMPDEST DUP3 MSTORE POP POP JUMP JUMPDEST PUSH0 PUSH1 0x20 DUP3 ADD SWAP1 POP PUSH2 0xFF PUSH0 DUP4 ADD DUP5 PUSH2 0xDD JUMP JUMPDEST SWAP3 SWAP2 POP POP JUMP JUMPDEST PUSH0 DUP3 DUP3 MSTORE PUSH1 0x20 DUP3 ADD SWAP1 POP SWAP3 SWAP2 POP POP JUMP JUMPDEST PUSH32 0x6469646E742073656E6420656E6F756768204554480000000000000000000000 PUSH0 DUP3 ADD MSTORE POP JUMP JUMPDEST PUSH0 PUSH2 0x149 PUSH1 0x15 DUP4 PUSH2 0x105 JUMP JUMPDEST SWAP2 POP PUSH2 0x154 DUP3 PUSH2 0x115 JUMP JUMPDEST PUSH1 0x20 DUP3 ADD SWAP1 POP SWAP2 SWAP1 POP JUMP JUMPDEST PUSH0 PUSH1 0x20 DUP3 ADD SWAP1 POP DUP2 DUP2 SUB PUSH0 DUP4 ADD MSTORE PUSH2 0x176 DUP2 PUSH2 0x13D JUMP JUMPDEST SWAP1 POP SWAP2 SWAP1 POP JUMP INVALID LOG2 PUSH5 0x6970667358 0x22 SLT KECCAK256 PUSH18 0x98A6F20601B80301CE892A44BCE86C92F331 TLOAD POP EXTCODESIZE PUSH4 0xCA2BCC0C 0x4E 0xE9 0xEC TLOAD SELFBALANCE PUSH5 0x736F6C6343 STOP ADDMOD BYTE STOP CALLER "
				},
				"gasEstimates": {
					"creation": {
						"codeDepositCost": "87000",
						"executionCost": "22238",
						"totalCost": "109238"
					},
					"external": {
						"fund()": "447",
						"minimumUsd()": "2402",
						"withdraw()": "143"
					}
				},
				"methodIdentifiers": {
					"fund()": "b60d4288",
					"minimumUsd()": "098de820",
					"withdraw()": "3ccfd60b"
				}
			},
			"storageLayout": {
				"storage": [
					{
						"astId": 4,
						"contract": "fundme.sol:FundMe",
						"label": "minimumUsd",
						"offset": 0,
						"slot": "0",
						"type": "t_uint256"
					}
				],
				"types": {
					"t_uint256": {
						"encoding": "inplace",
						"label": "uint256",
						"numberOfBytes": "32"
					}
				}
			},
			"userdoc": {
				"kind": "user",
				"methods": {},
				"version": 1
			}
		}
	}
}